:0300000002037F79
:0C037F00787FE4F6D8FD7581640203C6A7
:1007C700C0F9A4B0999282F880908883C6A1868EDA
:1007350001500001510A08250102030405060708B6
:09074500014200C108022200017A
:10079500E4FEEEC39F5009E4FD0DBD21FC0E80F281
:0107A5002231
:0807D7007F147EF8DEFEDFFA5C
:0107DF0022F7
:0206F1008F1D5B
:1006F300E4F51EE51EC3951D501DE4F51FAF1FE471
:10070300FCFDFE7B577A85F9F8D3120149400405B5
:070713001F80EA051E80DCD7
:01071A0022BC
:10077F0075437F75441F854482854383EFF0E06F97
:06078F006002D322C32228
:1002F000A90775437F754410854482854383E9F0DF
:1003000075437F754411854482854383EDF07543C1
:100310007F754412854482854383EBF075437F7576
:100320004413854482854383E559F0E065597002A2
:10033000E5586002D32275437F7544148544828555
:100340004383E55BF075437F75441585448285439F
:1003500083E55DF075437F7544168544828543834C
:10036000E55FF075437F754417854482854383E5D7
:0F03700061F0E065617002E5606002D322C32294
:1001B100EF12015F01DD0A02192001E22801EA3292
:1001C10001EF5001F46401FC7D0209900201C802B3
:1001D10021E80211F40211FA000002297553EF809F
:1001E100037553877554FF804175530E80257553F0
:1001F10049801075534375542F802F755303801315
:1002010075534375541B80227553807554FA801AB7
:1002110075530175541C8012E4F553755416800A08
:10022100E4F5537554148002D32275437F75440657
:10023100854482854383E553F0E065536002D32210
:1002410075437F754407854482854383E554F0E017
:0702510065546002D322C3D3
:010258002283
:10074F0075437F754400854482854383E0F564EFEC
:08075F00F0E0B50702C322D34C
:01076700226F
:1007680075437F75440985448285438374AAF0E004
:07077800B4AA02C322D32240
:10071B0075437F754400854482854383E0F55374AC
:09072B0009F0E030E002C322D322
:0107340022A2
:1004F20075437F754401854482854383EFF024FE72
:10050200601224FE602224FC603224F86004240F6E
:10051200703EC32275437F754402854482854383BE
:10052200E020E502C322D32275437F75440285444D
:1005320082854383E030E002D322C32275437F7574
:100542004402854482854383E020E102C322D32210
:02055200D322B2
:1006880075437F754402854482854383E0FF20E3F8
:10069800037F0122EF20E2037F0222EF30E4037F91
:1006A800032275437F754410A844AC437D017E0046
:0B06B8007F041200F67F011204F21F05
:0106C3002214
:1005AB0075437F754402854482854383E0FF30E2C7
:1005BB00EF75437F754410854482854383EDF07559
:1005CB00437F754411854482854383E4F075437FF3
:1005DB00754412854482854383F075437F754413BC
:1005EB00AF05FEA844AC437D011200F67F01020467
:0105FB00F20D
:1005FC0075437F754402854482854383E0FE30E277
:10060C00EF75437F754410854482854383EDF07507
:10061C00437F754411854482854383E4F075437FA1
:10062C00754412854482854383F075437F7544136A
:0D063C00854482854383EFF07F010204F2C4
:10025900C2AF12071B92093009037F0122120768F6
:1002690092093009037F02227F8812077F920930A1
:1002790009037F0322E4F558F559F55A755BFFF533
:100289005C755DFFF55E755FFFF5607561FF7B1657
:10029900FA7D4EFC7FFF1202F092093009037F04B8
:1002A900227F641201B192093009037F0522754347
:1002B9007F754408854482854383741AF075437FAA
:1002C900754404854482854383741DF075437F75A5
:1002D9004400854482854383E054FEF0E060037F57
:0602E9000622D2AF7F00E7
:0102EF0022EC
:10000E00759850438920438780758DFA758BFAD287
:04001E008EC2AC22C0
:1007A600438901758CB8E4F58A43A890C2A9C28C26
:0107B6002220
:0807E0008F993099FDC29922A6
:0A06C4008B188A19891A8C1B8D1CF3
:1006CE00E4FDFCAB18AA19A91A8D828C8312011CA9
:1006DE00FF1207E00DBD00010CC3ED951CEC951B40
:0206EE0040E1E9
:0106F00022E7
:03000B00020649A1
:10064900C0E0C0F0C083C082C0D075D010C2A9C2BA
:100659008C758CB8758A007B007A007939AD4212A5
:1006690005AB7542007E007F087D007B007A00792A
:0F06790039120185D0D0D082D083D0F0D0E032BA
:030023000205547F
:10055400C0E0C0F0C083C082C0D075D00830983CE1
:10056400C298D2A9D28C85996274392542F8A662C0
:100574000542E54264087024C2A9C28C758CB8F5A2
:100584008AF542FB7A0079397D081205AB7E007F3B
:0C059400087D007B007A00793912018597
:0B05A000D0D0D082D083D0F0D0E03269
:0300030002040BE9
:0D040B00C0E0C0F0C083C082C0D075D00832
:1004180075437F754403854482854383E030E04D0E
:1004280075437F754410854482854383E0FE540FED
:10043800F563EE20E63275437F754413AF637E00A3
:10044800AA43A9447B0178457C007D001200F6AFE1
:10045800451207B7E4FEEEC39563500C74452EF8B9
:0D046800E6FF1207E00E80EE7F041204F2A2
:0B047500D0D0D082D083D0F0D0E03295
:1007B700C2A0C2A1C2A2C2A3EF9007C793F590221D
:0707E800D2B8D2A8C288229A
:10048000E4F552C2AF1207E812000E1207A67F0A67
:100490001207B7120259EF60077FBB1207E0800214
:1004A000D2AF7FAA1207E020B3271207D730B3FDDF
:1004B0000552E552B41003E4F5527D01AF52120526
:1004C000FCAF521207B7E552B41003E4F55212071D
:1004D000D775437F754402854482854383E0FC7F62
:1004E00064120795EC30E6BF1202597FEE1207E066
:0204F00080B5D5
:10038B00020480E493A3F8E493A34003F68001F204
:10039B0008DFF48029E493A3F85407240CC8C33373
:1003AB00C4540F4420C8834004F456800146F6DF42
:1003BB00E4800B0102040810204080900735E47E96
:1003CB00019360BCA3FF543F30E509541FFEE49337
:1003DB00A360010ECF54C025E060A840B8E493A3FE
:1003EB00FAE493A3F8E493A3C8C582C8CAC583CA29
:1003FB00F0A3C8C582C8CAC583CADFE9DEE780BEE1
:01074E0000AA
:10002600E709F608DFFA8046E709F208DFFA803EBC
:1000360088828C83E709F0A3DFFA8032E309F608A9
:10004600DFFA8078E309F208DFFA807088828C8311
:10005600E309F0A3DFFA806489828A83E0A3F608C5
:10006600DFFA805889828A83E0A3F208DFFA804C9F
:1000760080D280FA80C680D4806980F28033801076
:1000860080A680EA809A80A880DA80E280CA8033DF
:1000960089828A83ECFAE493A3C8C582C8CCC58357
:1000A600CCF0A3C8C582C8CCC583CCDFE9DEE78027
:1000B6000D89828A83E493A3F608DFF9ECFAA9F0A6
:1000C600EDFB2289828A83ECFAE0A3C8C582C8CCFC
:1000D600C583CCF0A3C8C582C8CCC583CCDFEADE15
:1000E600E880DB89828A83E493A3F208DFF980CC77
:1000F60088F0EF60010E4E60C388F0ED2402B40470
:100106000050B9F582EB2402B4040050AF23234516
:06011600822390007673C5
:10011C00BB010CE58229F582E5833AF583E0225098
:10012C0006E92582F8E622BBFE06E92582F8E222E2
:0D013C00E58229F582E5833AF583E49322FC
:10014900EB9FF5F0EA9E42F0E99D42F0EC6480C82D
:0601590064809845F022CD
:10015F00D083D082F8E4937012740193700DA3A32F
:10016F0093F8740193F5828883E473740293686043
:06017F00EFA3A3A380DF43
:10018500EF4E6012EF60010EEDBB010B89828A8391
:10019500F0A3DFFCDEFA2289F05007F709DFFCA99E
:0C01A500F022BBFEFCF309DFFCA9F022F5
:00000001FF
