:0300000002037F79
:0C037F00787FE4F6D8FD7581620203C6A9
:1007BE00C0F9A4B0999282F880908883C6A1868EE3
:10077600014E00014F0A082301020304050607087B
:05078600014000C10864
:10078C00E4FEEEC39F5009E4FD0DBD21FC0E80F28A
:01079C00223A
:0807CE007F147EF8DEFEDFFA65
:0107D6002200
:0206EC008F1D60
:1006EE00E4F51EE51EC3951D501DE4F51FAF1FE476
:1006FE00FCFDFE7B577A85F9F8D3120149400405BB
:07070E001F80EA051E80DCDC
:0107150022C1
:1007600075417F75421F854282854183EFF0E06FBE
:060770006002D322C32247
:1002F000A90775417F754210854282854183E9F0E7
:1003000075417F754211854282854183EDF07541CB
:100310007F754212854282854183EBF075417F757E
:100320004213854282854183E557F0E065577002AC
:10033000E5566002D32275417F754214854282855D
:100340004183E559F075417F7542158542828541AB
:1003500083E55BF075417F75421685428285418356
:10036000E55DF075417F754217854282854183E5E1
:0F0370005FF0E0655F7002E55E6002D322C3229A
:1001B100EF12015F01DD0A02192001E22801EA3292
:1001C10001EF5001F46401FC7D0209900201C802B3
:1001D10021E80211F40211FA000002297551EF80A1
:1001E100037551877552FF804175510E80257551F8
:1001F10049801075514575523E802F75510380130A
:1002010075514375521B80227551807552FA801ABF
:1002110075510175521C8012E4F551755216800A10
:10022100E4F5517552148002D32275417F7542065F
:10023100854282854183E551F0E065516002D32218
:1002410075417F754207854282854183E552F0E021
:0702510065526002D322C3D5
:010258002283
:1007300075417F754200854282854183E0F562EF15
:08074000F0E0B50702C322D36B
:01074800228E
:1007490075417F75420985428285418374AAF0E02B
:07075900B4AA02C322D3225F
:1007160075417F754200854282854183E0F55174BB
:0907260009F0E030E002C322D327
:01072F0022A7
:1004ED0075417F754201854282854183EFF024FE7F
:1004FD00601224FE602224FC603224F86004240F74
:10050D00703EC32275417F754202854282854183CB
:10051D00E020E502C322D32275417F754202854258
:10052D0082854183E030E002D322C32275417F757D
:10053D004202854282854183E020E102C322D3221B
:02054D00D322B7
:1006830075417F754202854282854183E0FF20E305
:10069300037F0122EF20E2037F0222EF30E4037F96
:1006A300032275417F754210A842AC417D017E0053
:0B06B3007F041200F67F011204ED1F0F
:0106BE002219
:1005A60075417F754202854282854183E0FF30E2D4
:1005B600EF75417F754210854282854183EDF07566
:1005C600417F754211854282854183E4F075417F02
:1005D600754212854282854183F075417F754213CB
:1005E600AF05FEA842AC417D011200F67F01020470
:0105F600ED17
:1005F70075417F754202854282854183E0FE30E284
:10060700EF75417F754210854282854183EDF07514
:10061700417F754211854282854183E4F075417FB0
:10062700754212854282854183F075417F75421379
:0D063700854282854183EFF07F010204EDD2
:10025900C2AF12071692093009037F01221207491A
:1002690092093009037F02227F88120760920930C0
:1002790009037F0322E4F556F557F5587559FFF53B
:100289005A755BFFF55C755DFFF55E755FFF7B1663
:10029900FA7D4EFC7FFF1202F092093009037F04B8
:1002A900227F7D1201B192093009037F0522754130
:1002B9007F754208854282854183741AF075417FB2
:1002C900754204854282854183741DF075417F75AD
:1002D9004200854282854183E054FEF0E060037F5D
:0602E9000622D2AF7F00E7
:0102EF0022EC
:10000E00759850438920438780758DF4758BF44322
:05001E00A890D28E2223
:10079D00438901758CB8E4F58A43A890C2A9C28C2F
:0107AD002229
:0807D7008F993099FDC29922AF
:0A06BF008B188A19891A8C1B8D1CF8
:1006C900E4FDFCAB18AA19A91A8D828C8312011CAE
:1006D900FF1207D70DBD00010CC3ED951CEC951B4E
:0206E90040E1EE
:0106EB0022EC
:03000B00020644A6
:10064400C0E0C0F0C083C082C0D075D010C2A9C2BF
:100654008C758CB8758A007B007A007937AD4012AE
:1006640005A67540007E007F087D007B007A007936
:0F06740037120185D0D0D082D083D0F0D0E032C1
:0300230002054F84
:10054F00C0E0C0F0C083C082C0D075D00830983CE6
:10055F00C298D2A9D28C85996074372540F8A660CD
:10056F000540E54064087024C2A9C28C758CB8F5AB
:10057F008AF540FB7A0079377D081205A67E007F49
:0C058F00087D007B007A0079371201859E
:0B059B00D0D0D082D083D0F0D0E0326E
:0300030002040BE9
:0D040B00C0E0C0F0C083C082C0D075D00832
:1004180075417F754203854282854183E030E04D16
:1004280075417F754210854282854183E0FE540FF5
:10043800F561EE20E63275417F754213AF617E00AB
:10044800AA41A9427B0178437C007D001200F6AFE7
:10045800431207AEE4FEEEC39561500C74432EF8C8
:0D046800E6FF1207D70E80EE7F041204EDB0
:0B047500D0D0D082D083D0F0D0E03295
:1007AE00C2A0C2A1C2A2C2A3EF9007BE93F590222F
:0707DF00D2B8D2A8C28822A3
:10048000E4F550C2AF1207DF12000E12079D7F0A7B
:100490001207AE120259EF60077FBB1207D7800226
:1004A000D2AF20B3271207CE30B3FD0550E550B4CC
:1004B0001003E4F5507D01AF501205F7AF5012075D
:1004C000AEE550B41003E4F5501207CE75417F75C8
:1004D0004202854282854183E0FC7F6412078CECF6
:0D04E00030E6BF1202597FEE1207D780B53B
:10038B00020480E493A3F8E493A34003F68001F204
:10039B0008DFF48029E493A3F85407240CC8C33373
:1003AB00C4540F4420C8834004F456800146F6DF42
:1003BB00E4800B0102040810204080900776E47E55
:1003CB00019360BCA3FF543F30E509541FFEE49337
:1003DB00A360010ECF54C025E060A840B8E493A3FE
:1003EB00FAE493A3F8E493A3C8C582C8CAC583CA29
:1003FB00F0A3C8C582C8CAC583CADFE9DEE780BEE1
:01078B00006D
:10002600E709F608DFFA8046E709F208DFFA803EBC
:1000360088828C83E709F0A3DFFA8032E309F608A9
:10004600DFFA8078E309F208DFFA807088828C8311
:10005600E309F0A3DFFA806489828A83E0A3F608C5
:10006600DFFA805889828A83E0A3F208DFFA804C9F
:1000760080D280FA80C680D4806980F28033801076
:1000860080A680EA809A80A880DA80E280CA8033DF
:1000960089828A83ECFAE493A3C8C582C8CCC58357
:1000A600CCF0A3C8C582C8CCC583CCDFE9DEE78027
:1000B6000D89828A83E493A3F608DFF9ECFAA9F0A6
:1000C600EDFB2289828A83ECFAE0A3C8C582C8CCFC
:1000D600C583CCF0A3C8C582C8CCC583CCDFEADE15
:1000E600E880DB89828A83E493A3F208DFF980CC77
:1000F60088F0EF60010E4E60C388F0ED2402B40470
:100106000050B9F582EB2402B4040050AF23234516
:06011600822390007673C5
:10011C00BB010CE58229F582E5833AF583E0225098
:10012C0006E92582F8E622BBFE06E92582F8E222E2
:0D013C00E58229F582E5833AF583E49322FC
:10014900EB9FF5F0EA9E42F0E99D42F0EC6480C82D
:0601590064809845F022CD
:10015F00D083D082F8E4937012740193700DA3A32F
:10016F0093F8740193F5828883E473740293686043
:06017F00EFA3A3A380DF43
:10018500EF4E6012EF60010EEDBB010B89828A8391
:10019500F0A3DFFCDEFA2289F05007F709DFFCA99E
:0C01A500F022BBFEFCF309DFFCA9F022F5
:00000001FF
