:03000000020347B1
:0C034700787FE4F6D8FD75816E02038E0D
:10065500015A00015B0A014B00C109022B00000190
:1006650049000222000002240000022600000228A0
:02067500000083
:08071E008F993099FDC2992268
:0A05DF008B188A19891A8C1B8D1CD9
:1005E900E4FDFCAB18AA19A91A8D828C8312011C8F
:1005F900FF12071E0DBD00010CC3ED951CEC951BE8
:0206090040E1CE
:01060B0022CC
:1006F400754D7F754E1F854E82854D83EFF0E06FFB
:060704006002D322C322B3
:1002B800A907754D7F754E10854E82854D83E9F0EF
:1002C800754D7F754E11854E82854D83EDF0754DC8
:1002D8007F754E12854E82854D83EBF0754D7F7587
:1002E8004E13854E82854D83E562F0E065627002AB
:1002F800E5616002D322754D7F754E14854E828567
:100308004D83E564F0754D7F754E15854E82854D9C
:1003180083E566F0754D7F754E16854E82854D8353
:10032800E568F0754D7F754E17854E82854D83E5DE
:0F0338006AF0E0656A7002E5696002D322C322B1
:10016F00EF120149019E0501A30A01A81401E12024
:10017F0001AD2801B53201BA5001BF6401C47D0140
:10018F00D19001C9C801E9E801D9F4000001F17566
:10019F006BBF800D756B318034756B18802F756B4D
:1001AF0087756CFF803E756B0E8022756B49800DD5
:1001BF00756B048018756B038013756B43756C1B1F
:1001CF008022756B80756CFA801A756B01756C1CCB
:1001DF008012E4F56B756C16800AE4F56B756C1480
:1001EF008002D322754D7F754E06854E82854D83D5
:1001FF00E56BF0E0656B6002D322754D7F754E079E
:10020F00854E82854D83E56CF0E0656C6002D322EC
:01021F00C31B
:0102200022BB
:1006AC00754D7F754E00854E82854D83E0F56DEF5F
:0806BC00F0E0B50702C322D3F0
:0106C4002213
:1006DD00754D7F754E09854E82854D8374AAF0E068
:0706ED00B4AA02C322D322CC
:10067800754D7F754E00854E82854D83E0F56E740D
:0906880009F0E030E002C322D3C6
:010691002246
:10044E00754D7F754E01854E82854D83EFF024FEEE
:10045E00601224FE602224FC603224F86004240F13
:10046E00703EC322754D7F754E02854E82854D833B
:10047E00E020E502C322D322754D7F754E02854ED4
:10048E0082854D83E030E002D322C322754D7F7505
:10049E004E02854E82854D83E020E102C322D32297
:0204AE00D32257
:030003000206C52D
:0D06C500C0E0C0F0C083C082C0D075D00876
:0B06D200D0D0D082D083D0F0D0E03236
:1005A300754D7F754E02854E82854D83E0FF20E3B6
:1005B300037F0122EF20E2037F0222EF30E4037F77
:1005C3000322754D7F754E10A84EAC4D7D017E0004
:0B05D3007F041200F67F0112044E1F8F
:0105DE0022FA
:10051200754D7F754E02854E82854D83E0FF30E238
:10052200EF754D7F754E10854E82854D83EDF075CA
:100532004D7F754E11854E82854D83E4F0754D7F5A
:10054200754E12854E82854D83F0754D7F754E1323
:10055200AF05FEA84EAC4D7D011200F67F010204EC
:010562004E4A
:10022100C2AF12067892083008037F01221206DD60
:1002310092083008037F02227F881206F492083068
:1002410008037F0322E4F561F562F5637564FFF548
:10025100657566FFF5677568FFF569756AFF7B1659
:10026100FA7D4EFC7FFF1202B892083008037F042A
:10027100227F7D12016F92083008037F0522754DA0
:100281007F754E08854E82854D83741AF0754D7FBA
:10029100754E04854E82854D83741DF0754D7F75B5
:1002A1004E00854E82854D83E054FEF0E060037F71
:0602B1000622D2AF7F001F
:0102B7002224
:03000600D2A8225B
:03072D00C2B7222E
:03073000D2B7221B
:030023000204B024
:0B04B000C0E0C0D075D000C000C00745
:1004BB00054985994C752B00752C01C298E54CB4F8
:1004CB000A087522007523008034E54CB40B0875BF
:1004DB0022007523018027E52345226011AF4C7460
:1004EB0001A807088002C333D8FC42908010AF4CA0
:0E04FB007401A807088002C333D8FCF45290A5
:09050900D007D000D0D0D0E032C0
:10000E00759850438920438780758DF3758BF34324
:05001E00A890D28E2223
:07072600758C3C758AAF22BF
:0B070A00438901120726D2A9D28C22DD
:03000B0002056388
:07056300C0E0C0D075D0100C
:10056A00120726E527640645267021E525452470ED
:10057A00047F0180027F007524008F25E52445252C
:10058A0024FF92B575260075270080080527E52700
:04059A0070020526C0
:05059E00D0D0D0E032D6
:10060C00E4FDFCC3ED9FEE6480F8EC64809850151B
:10061C00E4FBFA0BBB00010AEB64214A70F50DBD3B
:05062C0000010C80DE5E
:0106310022A6
:080715007F147EF8DEFEDFFA1E
:01071D0022B9
:10063200E4FDFCEFFBC3ED9BEC94005015E4FBFAE8
:100642000BBB00010ABAFFF8BBFFF50DBD00010CA0
:0206520080E145
:010654002283
:10069200E529452870047F0180027F007528008FBC
:0906A20029E528452924FF92B541
:0106AB00222C
:1003D300751D00751E4FC2A0C2AF12000612000E9B
:1003E30012070AD2AF7590FF12072DE52C64014561
:1003F3002B70F8120730C2ACF52BF52C75990A3027
:1004030099FDC29975990B3099FDC29975990C3074
:1004130099FDC2998549993099FDC29985499930C9
:1004230099FDC299854C993099FDC29975992330EC
:1004330099FDC2998590993099FDC2997599233098
:0B04430099FDC299D2AC12072D80A0D9
:100353000203D3E493A3F8E493A34003F68001F2EA
:1003630008DFF48029E493A3F85407240CC8C333AB
:10037300C4540F4420C8834004F456800146F6DF7A
:10038300E4800B0102040810204080900655E47EAF
:10039300019360BCA3FF543F30E509541FFEE4936F
:1003A300A360010ECF54C025E060A840B8E493A336
:1003B300FAE493A3F8E493A3C8C582C8CAC583CA61
:1003C300F0A3C8C582C8CAC583CADFE9DEE780BE19
:010677000082
:10002600E709F608DFFA8046E709F208DFFA803EBC
:1000360088828C83E709F0A3DFFA8032E309F608A9
:10004600DFFA8078E309F208DFFA807088828C8311
:10005600E309F0A3DFFA806489828A83E0A3F608C5
:10006600DFFA805889828A83E0A3F208DFFA804C9F
:1000760080D280FA80C680D4806980F28033801076
:1000860080A680EA809A80A880DA80E280CA8033DF
:1000960089828A83ECFAE493A3C8C582C8CCC58357
:1000A600CCF0A3C8C582C8CCC583CCDFE9DEE78027
:1000B6000D89828A83E493A3F608DFF9ECFAA9F0A6
:1000C600EDFB2289828A83ECFAE0A3C8C582C8CCFC
:1000D600C583CCF0A3C8C582C8CCC583CCDFEADE15
:1000E600E880DB89828A83E493A3F208DFF980CC77
:1000F60088F0EF60010E4E60C388F0ED2402B40470
:100106000050B9F582EB2402B4040050AF23234516
:06011600822390007673C5
:10011C00BB010CE58229F582E5833AF583E0225098
:10012C0006E92582F8E622BBFE06E92582F8E222E2
:0D013C00E58229F582E5833AF583E49322FC
:10014900D083D082F8E4937012740193700DA3A345
:1001590093F8740193F5828883E473740293686059
:06016900EFA3A3A380DF59
:00000001FF
