:030000000203FEFA
:0C03FE00787FE4F6D8FD75816E0204459E
:1007990001560001570A014700C10802270000015C
:0A07A90045000222000002240000B7
:080838008F993099FDC299224D
:0A0723008B188A19891A8C1B8D1C93
:10072D00E4FDFCAB18AA19A91A8D828C8312011C49
:10073D00FF1208380DBD00010CC3ED951CEC951B87
:02074D0040E189
:01074F002287
:1007FE007549FE754A1F854A82854983EFF0E06F81
:06080E006002D322C322A8
:10036F00A9077549FE754A10854A82854983E9F0C8
:10037F007549FE754A11854A82854983EDF07549A5
:10038F00FE754A12854A82854983EBF07549FE75E1
:10039F004A13854A82854983E563F0E065637002FD
:1003AF00E5626002D3227549FE754A14854A82853B
:1003BF004983E565F07549FE754A15854A82854979
:1003CF0083E567F07549FE754A16854A828549832C
:1003DF00E569F07549FE754A17854A82854983E5B7
:0F03EF006BF0E0656B7002E56A6002D322C322F7
:10016F00EF120149019E0501A30A01A81401E7201E
:10017F0001AD2801B53201BA5001BF6401C77D013D
:10018F00D79001CFC801EFE801DFF4000001F77548
:10019F005DBF800D755D31803A755D188035755D79
:1001AF0087755EFF8044755D0E8028755D498013ED
:1001BF00755D02755E2F8032755D01755E5F802AF9
:1001CF00755D43755E1B8022755D80755EFA801AC2
:1001DF00755D01755E1C8012E4F55D755E16800A13
:1001EF00E4F55D755E148002D3227549FE754A06EB
:1001FF00854A82854983E55DF0E0655D6002D32223
:10020F007549FE754A07854A82854983E55EF0E0A8
:07021F00655E6002D322C3FB
:0102260022B5
:1007CE007549FE754A00854A82854983E0F51DEF1D
:0807DE00F0E0B50702C322D3CD
:0107E60022F0
:1007E7007549FE754A09854A8285498374AAF0E0EE
:0707F700B4AA02C322D322C1
:1007B4007549FE754A00854A82854983E0F55D7472
:0907C40009F0E030E002C322D389
:0107CD002209
:10056B007549FE754A01854A82854983EFF024FE61
:10057B00601224FE602224FC603224F86004240FF5
:10058B00703EC3227549FE754A02854A82854983AE
:10059B00E020E502C322D3227549FE754A02854A43
:1005AB0082854983E030E002D322C3227549FE7570
:1005BB004A02854A82854983E020E102C322D32285
:0205CB00D32239
:1006EF008F6E7549FE754A0312084C7599EE309955
:1006FF00FDC299854A82854983E0F5993099FDC2FB
:10070F0099856E993099FDC2997599113099FDC2ED
:04071F0099020847EC
:0300030002048A6A
:0D048A00C0E0C0F0C083C082C0D075D008B3
:100497007549FE754A03854A82854983E030E04CF9
:1004A7007549FE754A10854A82854983E0FE540FD7
:1004B700F56CEE20E6317549FE754A13AF6C7E0088
:1004C700AA49A94A7B01784B7C007D001200F6758A
:1004D7006D00E56DC3956C500E744B256DF8E6FF06
:0C04E7001206EF056D80EB7F0412056B20
:0B04F300D0D0D082D083D0F0D0E03217
:1006B3007549FE754A02854A82854983E0FF20E336
:1006C300037F0122EF20E2037F0222EF30E4037F66
:1006D30003227549FE754A10A84AAC497D017E0084
:0B06E3007F041200F67F0112056B1F60
:0106EE0022E9
:100622007549FE754A02854A82854983E0FF30E2B8
:10063200EF7549FE754A10854A82854983EDF0754A
:1006420049FE754A11854A82854983E4F07549FE5F
:10065200754A12854A82854983F07549FE754A13A7
:10066200AF05FEA84AAC497D011200F67F010205E2
:010672006B1C
:1002D800C2A81207B492093009037F01221207E766
:1002E80092093009037F02227F881207FE920930A3
:1002F80009037F0322E4F562F563F5647565FFF58C
:10030800667567FFF5687569FFF56A756BFF7B169B
:10031800FA7D4EFC7FFF12036F92093009037F04B8
:10032800227F6412016F92093009037F0522754903
:10033800FE754A08854A82854983741AF07549FE14
:10034800754A04854A82854983741DF07549FE758E
:100358004A00854A82854983E054FEF0E060037FC5
:060368000622D2A87F006E
:01036E00226C
:1005CD007599773099FDC2997549FE754A02854A2C
:1005DD0082854983E0FE30E2E77549FE754A108554
:1005ED004A82854983EDF07549FE754A11854A8227
:1005FD00854983E4F07549FE754A12854A8285491D
:10060D0083F07549FE754A13854A82854983EFF05B
:05061D007F0102056BE6
:1004FE007D011205CD7549FE754A027FD07E071229
:10050E000750854A82854983E0F55D759988309953
:10051E00FDC299855D993099FDC299759999309969
:10052E00FDC299E55D20E31A854A82854983E0F58F
:10053E005D7FC87E00120750855D993099FDC29986
:10054E0080E1E55D30E60D7599993099FDC2997F90
:0C055E00EE1208387599AA3099FDC29978
:01056A00226E
:05000600C2B8C288220F
:05084700C297D2AC22B3
:05084C00D297C2AC22AE
:03002300020814BC
:0E0814000545859948752700752801C2983260
:10000E00759850438920438780758DF3758BF34324
:05001E00A890D28E2223
:07084000758C3C758AAF22A4
:0D082200438901120840D2A9D28CD2B9221C
:03000B0002067377
:07067300C0E0C0D075D010FB
:10067A00120840E525640445247021E523452270CB
:10068A00047F0180027F007522008F23E522452323
:10069A0024FF929075240075250080080525E5251C
:0406AA0070020524B1
:0506AE00D0D0D0E032C5
:10075000E4FDFCC3ED9FEE6480F8EC6480985015D6
:10076000E4FBFA0BBB00010AEB64214A70F50DBDF6
:0507700000010C80DE19
:010775002261
:08082F007F147EF8DEFEDFFA03
:01083700229E
:10077600E4FDFCEFFBC3ED9BEC94005015E4FBFAA3
:100786000BBB00010ABAFFF8BBFFF50DBD00010C5B
:0207960080E100
:01079800223E
:1002270075580075594FE4F55BF55CC2A0C2AF1273
:100237000006F59012000E120822D2AF12084C7574
:1002470099D13099FDC2997599D23099FDC29975A6
:1002570099D13099FDC2997599D23099FDC29912F9
:1002670002D8EF600EF5993099FDC2997FBB12084D
:10027700388002D2AF7599D43099FDC299120847D8
:10028700E5286401452770F812084CF527F528750D
:10029700990A3099FDC29975990B3099FDC29975E4
:1002A700990C3099FDC299055CE55C7002055B14F9
:1002B700F5993099FDC2998548993099FDC299AF52
:1002C700481204FE75990D3099FDC29912084780AE
:0102D700AF77
:10040A00020227E493A3F8E493A34003F68001F2DF
:10041A0008DFF48029E493A3F85407240CC8C333F3
:10042A00C4540F4420C8834004F456800146F6DFC2
:10043A00E4800B0102040810204080900799E47EB2
:10044A00019360BCA3FF543F30E509541FFEE493B7
:10045A00A360010ECF54C025E060A840B8E493A37E
:10046A00FAE493A3F8E493A3C8C582C8CAC583CAA9
:10047A00F0A3C8C582C8CAC583CADFE9DEE780BE61
:0107B3000045
:10002600E709F608DFFA8046E709F208DFFA803EBC
:1000360088828C83E709F0A3DFFA8032E309F608A9
:10004600DFFA8078E309F208DFFA807088828C8311
:10005600E309F0A3DFFA806489828A83E0A3F608C5
:10006600DFFA805889828A83E0A3F208DFFA804C9F
:1000760080D280FA80C680D4806980F28033801076
:1000860080A680EA809A80A880DA80E280CA8033DF
:1000960089828A83ECFAE493A3C8C582C8CCC58357
:1000A600CCF0A3C8C582C8CCC583CCDFE9DEE78027
:1000B6000D89828A83E493A3F608DFF9ECFAA9F0A6
:1000C600EDFB2289828A83ECFAE0A3C8C582C8CCFC
:1000D600C583CCF0A3C8C582C8CCC583CCDFEADE15
:1000E600E880DB89828A83E493A3F208DFF980CC77
:1000F60088F0EF60010E4E60C388F0ED2402B40470
:100106000050B9F582EB2402B4040050AF23234516
:06011600822390007673C5
:10011C00BB010CE58229F582E5833AF583E0225098
:10012C0006E92582F8E622BBFE06E92582F8E222E2
:0D013C00E58229F582E5833AF583E49322FC
:10014900D083D082F8E4937012740193700DA3A345
:1001590093F8740193F5828883E473740293686059
:06016900EFA3A3A380DF59
:00000001FF
