:03000000020026D5
:0C002600787FE4F6D8FD75812002006DA3
:02001F00C1001E
:090126000F12012F0F12012F0F1F
:08012F008F993099FDC299225D
:0A00B2008B088A09890A8C0B8D0C5B
:1000BC00E4FDFCAB08AA09A90A8D828C831200DF2F
:1000CC00FF12012F0DBD00010CC3ED950CEC950B2F
:0200DC0040E101
:0100DE0022FF
:0C013700E4F5A8D2B8D2A8C288C2AF225A
:10010C0075985053890F438920438780758DF475FA
:0A011C008BF443A890D28EC2AB22F0
:0300230002014394
:03014300309807EA
:07014600C29885990DD2005B
:01014D00327F
:1000030012010CC2003000FDC200E4FF12012F12E6
:0C00130001261201267F0812012F80E94F
:10003200020003E493A3F8E493A34003F68001F2E1
:1000420008DFF48029E493A3F85407240CC8C333CF
:10005200C4540F4420C8834004F456800146F6DF9E
:10006200E4800B010204081020408090001FE47E0F
:10007200019360BCA3FF543F30E509541FFEE49393
:10008200A360010ECF54C025E060A840B8E493A35A
:10009200FAE493A3F8E493A3C8C582C8CAC583CA85
:1000A200F0A3C8C582C8CAC583CADFE9DEE780BE3D
:0100210000DE
:1000DF00BB010CE58229F582E5833AF583E02250D6
:1000EF0006E92582F8E622BBFE06E92582F8E22220
:0D00FF00E58229F582E5833AF583E493223A
:00000001FF
