:030000000205DF17
:0C05DF00787FE4F6D8FD7581E80206265E
:0B0B6800C1000137000134000135001E
:100B7F007539FE753A1F853A82853983EFF0E06F3C
:060B8F006002D322C32224
:10055000A9077539FE753A10853A82853983E9F025
:100560007539FE753A11853A82853983EDF0753912
:10057000FE753A12853A82853983EBF07539FE753E
:100580003A13853A82853983E528F0E065287002C0
:10059000E5276002D3227539FE753A14853A8285C3
:1005A0003983E52AF07539FE753A15853A82853921
:1005B00083E52CF07539FE753A16853A82853983C4
:1005C000E52EF07539FE753A17853A82853983E54F
:0F05D00030F0E065307002E52F6002D322C322C5
:10034A00EF1201BA037905037E0A03831403C2205C
:10035A00038828039032039550039A6403A27D030D
:10036A00B29003AAC803CAE803BAF4000003D2751C
:10037A0022BF800D752231803A7522188035752288
:10038A00877523FF804475220E80287522498013C1
:10039A0075220275232F803275220175235F802A08
:1003AA0075224375231B80227522807523FA801AD1
:1003BA0075220175231C8012E4F522752316800A22
:1003CA00E4F5227523148002D3227539FE753A06A4
:1003DA00853A82853983E522F0E065226002D322DC
:1003EA007539FE753A07853A82853983E523F0E047
:0703FA0065236002D322C35A
:0104010022D8
:100B38007539FE753A00853A82853983E0F557EFB5
:080B4800F0E0B50702C322D35F
:010B50002282
:100B51007539FE753A09853A8285398374AAF0E0C0
:070B6100B4AA02C322D32253
:100B1E007539FE753A00853A82853983E0F522747F
:090B2E0009F0E030E002C322D31B
:010B3700229B
:10089D007539FE753A01853A82853983EFF024FE6C
:1008AD00601224FE602224FC603224F86004240FC0
:1008BD00703EC3227539FE753A02853A82853983B9
:1008CD00E020E502C322D3227539FE753A02853A3E
:1008DD0082853983E030E002D322C3227539FE755B
:1008ED003A02853A82853983E020E102C322D32280
:0208FD00D32204
:100A31008F337539FE753A03120BE57599EE3099CE
:100A4100FDC299853A82853983E0F5993099FDC2D5
:100A5100998533993099FDC2997599113099FDC2E3
:040A610099020BE00B
:030003000206E012
:0D06E000C0E0C0F0C083C082C0D075D0085B
:1006ED007539FE753A03853A82853983E030E04CE1
:1006FD007539FE753A10853A82853983E0FE540FBF
:10070D00F531EE20E6317539FE753A13AF317E00C5
:10071D00AA39A93A7B01783B7C007D001200F67561
:10072D003200E532C39531500E743B2532F8E6FFA9
:0C073D00120A31053280EB7F0412089D87
:0B074900D0D0D082D083D0F0D0E032BE
:1009F5007539FE753A02853A82853983E0FF20E331
:100A0500037F0122EF20E2037F0222EF30E4037F20
:100A150003227539FE753A10A83AAC397D017E007E
:0B0A25007F041200F67F0112089D1FE5
:010A300022A3
:100954007539FE753A02853A82853983E0FF30E2C3
:10096400EF7539FE753A10853A82853983EDF07555
:1009740039FE753A11853A82853983E4F07539FE7A
:10098400753A12853A82853983F07539FE753A13C2
:10099400AF05FEA83AAC397D011200F67F010208CA
:0109A4009DB5
:1004B900C2A8120B1E92023002037F0122120B51B5
:1004C90092023002037F02227F88120B7F92023050
:1004D90002037F0322E4F527F528F529752AFFF59C
:1004E9002B752CFFF52D752EFFF52F7530FF7B161B
:1004F900FA7D4EFC7FFF12055092023002037F0401
:10050900227F6412034A92023002037F0522753961
:10051900FE753A08853A82853983741AF07539FE71
:10052900753A04853A82853983741DF07539FE75EB
:100539003A00853A82853983E054FEF0E060037F12
:060549000622D2A87F008B
:01054F002289
:1008FF007599773099FDC2997539FE753A02853A27
:10090F0082853983E0FE30E2E77539FE753A10854E
:10091F003A82853983EDF07539FE753A11853A8241
:10092F00853983E4F07539FE753A12853A82853937
:10093F0083F07539FE753A13853A82853983EFF066
:05094F007F0102089D7C
:1007C5007D011208FF7539FE753A027FD07E07124A
:1007D5000A92853A82853983E0F55875998830996A
:1007E500FDC2998558993099FDC2997599993099A5
:1007F500FDC299E55820E31A853A82853983E0F5EB
:10080500587FC87E00120A928558993099FDC29981
:1008150080E1E55830E60D7599993099FDC2997FCB
:0C082500EE120BCA7599AA3099FDC29919
:0108310022A4
:05000600C2B8C288220F
:050BE000C297D2AC2217
:050BE500D297C2AC2212
:03002300020BB716
:0A0BB7000537859938D200C2983244
:10000E00759850438920438780758DF3758BF34324
:05001E00A890D28E2223
:070BD200758C3C758AAF220F
:0D0BAA00438901120BD2D2A9D28CD2B922FC
:03000B00020A6581
:070A6500C0E0C0D075D01005
:100A6C00120BD2E535B40417E53470047F01800213
:100A7C007F008F34E53424FF929075350080020599
:010A8C003534
:050A8D00D0D0D0E032E2
:100A9200E4FDFCC3ED9FEE6480F8EC648098501591
:100AA200E4FBFA0BBB00010AEB64214A70F50DBDB1
:050AB20000010C80DED4
:010AB700221C
:080BC1007F147EF8DEFEDFFA6E
:010BC9002209
:100AB800E4FDFCEFFBC3ED9BEC94005015E4FBFA5E
:100AC8000BBB00010ABAFFF8BBFFF50DBD00010C16
:020AD80080E1BB
:010ADA0022F9
:10040200E4F521C2A0C2AF120006F59012000E124E
:100412000BAAD2AF120BE57599D13099FDC299752D
:1004220099D23099FDC2997599D13099FDC29975C9
:1004320099D23099FDC2991204B9EF600EF5993044
:1004420099FDC2997FBB120BCA8002D2AF7599D4B3
:100452003099FDC299120BE03000FD120BE5C2008B
:1004620075990A3099FDC29975990B3099FDC29917
:1004720075990C3099FDC299AF2105218F99309958
:10048200FDC2998538993099FDC299E53864617049
:1004920021FE7F04FDFB7A00791C1202C9751CF152
:1004A200751DF2751EF3751FF47B007A00791C121C
:0704B2000754120BE080A1CA
:050BEA008F558D56221D
:0409A5008E458F46A6
:1009A900E4F5478B488A49894AF547AE45AF467C05
:1009B900007D02120184C3E5479FEE6480F87480CC
:1009C900985028E54775F002A4AEF0254AF54AEE9D
:1009D9003549F549AB48FAA94A12011CFF900001B3
:0B09E900120135FD120BEA054780C02B
:0109F40022E0
:100AFE00900001120135547FFD12011C540FFF7E30
:0F0B0E0000ED14700AE92405F9E43AFA1209A57A
:010B1D0022B5
:070BD9008B4F8A5089512265
:040BEF00244B410052
:0B0B7300011800C101011900011A0067
:080BCA008F993099FDC29922B8
:060ADB008B268A27892802
:100AE100E4FEEEC39D5015AB26AA27A9288E827578
:0C0AF1008300120135FF120BCA0E80E6D4
:010AFD0022D6
:100832007552FF75530B7554EFE51814601E146062
:10084200342402704AAB52AA53A954851882758384
:10085200001201356F70387518018033AB52AA53FC
:10086200A954851882758300120135B507057518DC
:1008720002801C8017AB52AA53A954851882758333
:1008820000120135B507057518038003E4F518E574
:0A08920018B40305E4F518D322C3DF
:01089C002239
:10066B00E4F54BF54C754D00754E1C200114AF1B7A
:10067B0012083292017BFF7A0B79EF120B958F19CF
:10068B0080500519AF1B12083250117BFF7A0B7982
:10069B00EF120B958F19E4F51AAF4B22E51B642C67
:1006AB00601AE51AC394045011AB4CAA4DA94E85A0
:1006BB001A82758300E51B120162051AE519B40B4A
:1006CB0011E51BB42A05754B018007C201E4F51A2D
:0406DB00F519AF4B13
:0106DF0022F8
:060754008B228A23892498
:10075A00E4F525FF78B97C00FD7BFF7A0B79EF126F
:10076A0002AC7BFF7A0B79EF120B95EF2525F52565
:10077A00FF052574B92FF8762CE4FFAB22AA23A92A
:10078A00248F82758300120135FEAD25052574B9C3
:10079A002DF8A606EF30E00AAE25052574B92EF825
:1007AA00762C0FBF04D5AF25052574B92FF8762A04
:0B07BA007B007A0079B9AD25020ADB54
:1005EB00020402E493A3F8E493A34003F68001F220
:1005FB0008DFF48029E493A3F85407240CC8C33311
:10060B00C4540F4420C8834004F456800146F6DFDF
:10061B00E4800B0102040810204080900B68E47EFC
:10062B00019360BCA3FF543F30E509541FFEE493D4
:10063B00A360010ECF54C025E060A840B8E493A39B
:10064B00FAE493A3F8E493A3C8C582C8CAC583CAC6
:10065B00F0A3C8C582C8CAC583CADFE9DEE780BE7E
:010B7E000076
:10002600E709F608DFFA8046E709F208DFFA803EBC
:1000360088828C83E709F0A3DFFA8032E309F608A9
:10004600DFFA8078E309F208DFFA807088828C8311
:10005600E309F0A3DFFA806489828A83E0A3F608C5
:10006600DFFA805889828A83E0A3F208DFFA804C9F
:1000760080D280FA80C680D4806980F28033801076
:1000860080A680EA809A80A880DA80E280CA8033DF
:1000960089828A83ECFAE493A3C8C582C8CCC58357
:1000A600CCF0A3C8C582C8CCC583CCDFE9DEE78027
:1000B6000D89828A83E493A3F608DFF9ECFAA9F0A6
:1000C600EDFB2289828A83ECFAE0A3C8C582C8CCFC
:1000D600C583CCF0A3C8C582C8CCC583CCDFEADE15
:1000E600E880DB89828A83E493A3F208DFF980CC77
:1000F60088F0EF60010E4E60C388F0ED2402B40470
:100106000050B9F582EB2402B4040050AF23234516
:06011600822390007673C5
:10011C00BB010689828A83E0225002E722BBFE02E1
:09012C00E32289828A83E4932214
:10013500BB010CE58229F582E5833AF583E022507F
:1001450006E92582F8E622BBFE06E92582F8E222C9
:0D015500E58229F582E5833AF583E49322E3
:10016200F8BB010DE58229F582E5833AF583E8F0D3
:10017200225006E92582C8F622BBFE05E92582C87F
:02018200F22267
:10018400C2D5EC30E709B2D5E4C39DFDE49CFCEE96
:1001940030E715B2D5E4C39FFFE49EFE1202F5C317
:1001A400E49DFDE49CFC80031202F530D507C3E412
:0601B4009FFFE49EFE2205
:1001BA00D083D082F8E4937012740193700DA3A3D4
:1001CA0093F8740193F5828883E4737402936860E8
:0601DA00EFA3A3A380DFE8
:1001E000E709F60870FA8046E709F20870FA803EDF
:1001F00088828C83E709F0A370FA807EE309F60811
:1002000070FA8076E309F20870FA806E88828C8337
:10021000E309F0A370FA806289828A83E0A3F6087A
:1002200070FA805689828A83E0A3F20870FA804AC5
:1002300080D280FA80C680D4806580F280318010C0
:1002400080A680EA809A80A880DA80E280CA803125
:1002500089828A83ECFAE493A3C8C582C8CCC5839B
:10026000CCF0A3C8C582C8CCC583CC70E9800D8909
:10027000828A83E493A3F60870F9ECFAA9F0EDFB07
:100280002289828A83ECFAE0A3C8C582C8CCC583E0
:10029000CCF0A3C8C582C8CCC583CC70EA80DD8908
:1002A000828A83E493A3F20870F980CE88F0ED246B
:1002B00002B4040050C4F582EB2402B4040050BA26
:0902C000232345822390023073D0
:100B9500E4FFFE12011C600C0FEF70010E09E970F5
:050BA500F20A80EF22BE
:1002C900EF4E6012EF60010EEDBB010B89828A834C
:1002D900F0A3DFFCDEFA2289F05007F709DFFCA959
:0C02E900F022BBFEFCF309DFFCA9F022B0
:1002F500BC000BBE0029EF8DF084FFADF022E4CCED
:10030500F875F008EF2FFFEE33FEEC33FCEE9DECB5
:10031500984005FCEE9DFE0FD5F0E9E4CEFD22EDFB
:10032500F8F5F0EE8420D21CFEADF075F008EF2F45
:10033500FFED33FD4007985006D5F0F222C398FD36
:050345000FD5F0EA22D3
:00000001FF
