:03000000020026D5
:0C002600787FE4F6D8FD75814602006D7D
:100150000421FFA50100182F49206C6F76652079D6
:100160006F752CD6D0B9FABFF3D2B5B4F3D1A700CE
:02017000C100CC
:10000300759850438920438780758DFA758BFA4321
:05001300A890D28E222E
:0C0188001201940F1201940F1201940F49
:080194008F993099FDC29922F8
:0A00F6008B108A1189128C138D14EF
:10010000E4FDFCAB10AA11A9128D828C831201238D
:10011000FF1201940DBD00010CC3ED9514EC951375
:0201200040E1BC
:0101220022BA
:030023000200B226
:0A00B200C0E0C0D075D008309835CA
:1000BC00C298859915E515D3947F4012752E00745E
:1000CC0025252EF8A615E5152480F52D8017742509
:1000DC00252EF8A615052EE515622DE52EB408057E
:0500EC00752E00D2009A
:0500F100D0D0D0E03288
:10017300120003D2003000FDC200E4FF1201880F19
:0501830012018880F06C
:10003200020173E493A3F8E493A34003F68001F270
:1000420008DFF48029E493A3F85407240CC8C333CF
:10005200C4540F4420C8834004F456800146F6DF9E
:10006200E4800B0102040810204080900150E47EDD
:10007200019360BCA3FF543F30E509541FFEE49393
:10008200A360010ECF54C025E060A840B8E493A35A
:10009200FAE493A3F8E493A3C8C582C8CAC583CA85
:1000A200F0A3C8C582C8CAC583CADFE9DEE780BE3D
:01017200008C
:10012300BB010CE58229F582E5833AF583E0225091
:1001330006E92582F8E622BBFE06E92582F8E222DB
:0D014300E58229F582E5833AF583E49322F5
:00000001FF
